:020000040800F2
:10000000003000205D2A000851180008531800082D
:10001000551800085718000859180008000000007B
:100020000000000000000000000000005B18000855
:100030005D180008000000005F1800086118000843
:10004000AD2A0008AD2A0008AD2A0008AD2A000834
:10005000AD2A0008AD2A0008AD2A0008AD2A000824
:10006000AD2A0008AD2A0008AD2A00086D18000866
:10007000AD2A0008AD2A0008AD2A0008AD2A000804
:10008000AD2A0008AD2A0008AD2A0008AD2A0008F4
:10009000AD2A0008AD2A0008AD2A0008AD2A0008E4
:1000A000AD2A0008AD2A0008AD2A0008AD2A0008D4
:1000B000AD2A0008AD2A000800000000AD2A0008A3
:1000C000AD2A00080000000000000000AD2A000872
:1000D00000000000AD2A0008AD2A0008AD2A000883
:1000E000AD2A0008AD2A0008000000000000000052
:1000F0000000000000000000000000000000000000
:1001000000000000000000000000000000000000EF
:100110000000000000000000AD2A0008AD2A000821
:1001200000000000000000000000000000000000CF
:1001300000000000000000000000000000000000BF
:10014000AD2A0008AD2A000800000000AD2A000812
:10015000AD2A0008AD2A0008AD2A0008AD2A000823
:10016000AD2A0008AD2A00080000000000000000D1
:10017000000000000000000000000000000000007F
:0801800000000000AD2A000898
:1001880010B5054C237833B9044B13B10448AFF3C9
:1001980000800123237010BD04000020000000002F
:1001A800F82A00080C4B43B10C480D4910B5AFF3C1
:1001B80000800C48036823B910BD0A48036833B9A6
:1001C8007047094B002BF7D0BDE810401847064B85
:1001D800002BF5D0184700BF00000000F82A0008DF
:1001E800080000200400002000000000F0B583B0E3
:1001F800002388E0DE08083650F8264003F0070E92
:100208004FEA8E0E0F2707FA0EF724EA07040F6944
:1002180007FA0EF73C4340F8264083E086682640FC
:10022800CF6807FA0EF73E438660466826EA05055A
:100238004E68C6F300169E4035434560C5682C409D
:100248008D6805FA0EF52C43C4604C6814F0805F85
:1002580058D0474CA56945F00105A561A46904F08B
:1002680001040194019C9D08AE1C424C54F82640A0
:1002780003F00306B6000F27B74024EA0704B0F1DD
:10028800904F6CD03C4FB8426BD007F58067B842AE
:1002980069D007F58067B8425FD0052707FA06F6E8
:1002A80034430235334E46F82540344C2568D44350
:1002B80005EA04064F6817F4803F01D042EA0506B4
:1002C8002E4D2E606D6804EA05064F6817F4003F4E
:1002D80001D042EA0506294D6E60AD6804EA0506BC
:1002E8004F6817F4801F01D042EA0506234DAE601F
:1002F800ED682C404E6816F4001F01D042EA050450
:100308001E4AD46001330A6832FA03F42DD001255D
:100318009D402A40F6D04C68022C3FF46BAF122C5B
:100328003FF468AF06684FEA430E032404FA0EF45C
:10033800E44326404F6807F0030707FA0EF73E43E9
:1003480006604E68771E012F7FF668AF112E3FF4C6
:1003580065AF122E7FF472AF60E703279EE7002790
:100368009CE701279AE7022798E703B0F0BD00BF92
:100378000010024000000140000400480004014051
:100388000AB9816270478161704743695940416188
:100398007047000038B50446836802691343426910
:1003A8001343C269134301680868644A024013434F
:1003B8000B602268536823F44053E1680B43536091
:1003C800A369226A134321688A6822F430621343BE
:1003D8008B6025685A4B9D4215D05A4B9D4229D0B7
:1003E80003F580639D4221D01023E269B2F5004FE6
:1003F80022D0082B00F29F80DFE803F066717C9D15
:10040800889D9D9D930003F558431B6B03F00303E0
:10041800032B09D8DFE803F00204060C0023E4E705
:100428000423E2E70823E0E71023DEE70023DCE704
:100438000223DAE70023D8E7082B42D8DFE803F0E5
:10044800051722412D414141380001F013F8626837
:10045800530803EB4003B3FBF2F39BB2002023F0F5
:100468000F02C3F3420313432268D36038BD01F07F
:1004780017F86268530803EB4003B3FBF2F39BB22F
:100488000020ECE76268530803F5740303F5105382
:10049800B3FBF2F39BB20020E1E700F0C3FE626811
:1004A800530803EB4003B3FBF2F39BB20020D6E7FB
:1004B8006268530803F58033B3FBF2F39BB2002064
:1004C800CDE701200023CAE700F0D4FF636800EB02
:1004D8005300B0FBF3F080B2E860002038BD00F0B4
:1004E800DFFF636800EB5300B0FBF3F080B2E86015
:1004F800002038BD6268530803F5F40303F59053F0
:10050800B3FBF2F39BB2EB60002038BD00F08AFE2B
:10051800636800EB5300B0FBF3F080B2E8600020A2
:1005280038BD6268530803F50043B3FBF2F39BB28E
:10053800EB60002038BD012038BD00BFF369FFEF34
:100548000038014000440040436A13F0010F06D010
:100558000268536823F40033816A0B435360436A8B
:1005680013F0020F06D00268536823F48033C16A7F
:100578000B435360436A13F0040F06D002685368B4
:1005880023F48023016B0B435360436A13F0080F75
:1005980006D00268536823F40043416B0B43536051
:1005A800436A13F0100F06D00268936823F480534F
:1005B800816B0B439360436A13F0200F06D00268E7
:1005C800936823F40053C16B0B439360436A13F0A1
:1005D800400F0AD00268536823F48013016C0B4360
:1005E8005360036CB3F5801F0BD0436A13F0800F80
:1005F80006D00268536823F40023816C0B435360D0
:1006080070470268536823F4C003416C0B4353607E
:10061800EBE72DE9F04105460F4616469846069C3D
:100628002B68DB6937EA03030CBF01230023B342BD
:100638001ED1B4F1FF3FF3D02CB102F0F7F9A0EBD3
:1006480008008442ECD22A68136823F4D07313603C
:100658002A68936823F001039360202385F86930A2
:1006680085F86A30002385F868300320BDE8F081FA
:100678000020BDE8F08130B583B004460023C3668E
:1006880002F0D4F9054623681B6813F0080F0ED151
:1006980023681B6813F0040F17D1202384F86930EE
:1006A80084F86A30002084F8680003B030BD6FF029
:1006B8007E430093034600224FF400112046FFF7C3
:1006C800A8FF0028E4D00320EFE76FF07E430093F3
:1006D8002B4600224FF480012046FFF79AFF00289E
:1006E800DBD00320E1E778B310B5044690F8693011
:1006F8000BB3242384F869302268136823F00103BC
:1007080013602046FFF746FE01281FD0636ABBB975
:100718002268536823F4904353602268936823F057
:100728002A0393602268136843F00103136020468C
:10073800FFF7A1FF10BD80F8683001F05DF8D8E739
:100748002046FFF701FFE3E70120704710BD0000D6
:100758001549D1F8883043F47003C1F88830134B39
:100768001A6842F001021A605868114A02405A6039
:100778001A6822F0847222F480321A601A6822F40D
:1007880080221A605A6822F4FE025A60DA6A22F05D
:100798000F02DA62186B074A02401A6300229A6055
:1007A8004FF000638B60704700ED00E000100240DE
:1007B8000CC07FF8CCFC00FF38B504460268D3684B
:1007C80023F0A003D36002F031F905462368DB6803
:1007D80013F0200F07D102F029F9401BB0F57A7FFA
:1007E800F4D9032038BD002038BD38B50368DA686D
:1007F80012F0400F01D0002038BD04464FF0FF3200
:10080800DA6002F013F905462368DB6813F0400F3D
:1008180007D102F00BF9401BB0F57A7FF4D9032019
:1008280038BD002038BD00284CD038B50446437F79
:10083800002B3CD0022363772368CA225A622368BC
:1008480053225A622046FFF7D0FF0246002832D1D1
:1008580021688B6823F4E00323F040038B60206851
:100868008168636825692B4365692B430B43836063
:100878002368E168196121680B69A06843EA0043AD
:100888000B612168CB6823F08003CB6021680B6C77
:1008980023F480230B6421680B6CA06903430B6469
:1008A8002368FF21596201236377104638BD037717
:1008B80000F066FFBEE72368FF225A6204236377CD
:1008C8000122F2E7012210467047002302E00133BB
:1008D8000A38C0B20928FAD81B01DBB2184370479E
:1008E800F8B5037F012B77D00E4604460123037722
:1008F80002234377002A46D103689B6813F0400F10
:1009080001D10023CB703078FFF7DFFF0504707842
:10091800FFF7DBFF45EA0025B078FFF7D6FF28434D
:10092800F57840EA05452368CA225A6223685322AB
:100938005A622046FFF759FF0746002835D1236839
:1009480005F07F3525F0FE451D602268936823F485
:100958008023936021688B68F268306902431343EF
:100968008B602268D36823F08003D36023689B6878
:1009780013F0200F22D02368FF225A6201236377E5
:100988000023237729E003689B6813F0400F01D107
:100998000023CB7035787078000240EA0540B578BE
:1009A8002843F57840EA0545BDE72368FF225A62E7
:1009B800042363770023237701270EE02046FFF7FF
:1009C800FBFE0028D7D02368FF225A6204236377EE
:1009D80000232377012700E002273846F8BD70B5C9
:1009E800037F012B65D001230377022343773AB9AC
:1009F8004B7813F0100F03D003F0EF030A334B705A
:100A08000E460446002A32D1C878FFF75EFF050477
:100A18007078FFF75AFF45EA0025B078FFF755FFD1
:100A28002843357840EA45352368CA225A62236844
:100A380053225A622046FFF7D8FE064610BB2368A9
:100A480025F07F4525F0C0055D602268D36823F056
:100A58008003D36023689B6813F0200F1BD02368A2
:100A6800FF225A62012363770023237722E0487824
:100A78008D78CB78000240EA034028430D7840EA9D
:100A88004535D1E72368FF225A62042363770023A0
:100A9800237701260EE02046FFF78EFE0028DED0E1
:100AA8002368FF225A6204236377002323770126F1
:100AB80000E00226304670BDF8B5037F012B00F038
:100AC800A9800D4604460123037702234377002AB1
:100AD8004DD103689B6813F0400F01D10023CB7000
:100AE800EE692878FFF7F1FE07046878FFF7EDFE56
:100AF80047EA0027A878FFF7E8FE0743E87847EABF
:100B0800004795F82000FFF7E0FE47EA006006433B
:100B18006B691E436F68AB691F432368CA225A6218
:100B2800236853225A626B6AB3F5807F39D02268F2
:100B3800936823F4007393602268936823F4005346
:100B4800936001F073FF05462368DA6812F0020F1C
:100B580050D101F06BFF401BB0F57A7FF4D92368C0
:100B6800FF225A620320607700232377F8BD0368C9
:100B78009B6813F0400F01D10023CB70EE692A78EF
:100B88006B781B0243EA0243AA781343EA7843EAE4
:100B9800024395F8202043EA02631E436B691E4313
:100BA800B8E72268936823F4807393602268936897
:100BB80023F48053936001F039FF05462368DA680F
:100BC80012F0010F0DD101F031FF401BB0F57A7F13
:100BD800F4D92368FF225A62032060770023237721
:100BE800F8BDDE6123685F642268936843F480730C
:100BF800936007E01E6223689F642268936843F449
:100C0800007393602368FF225A62012363770020F0
:100C18002077F8BD0220F8BD70B582B0044603689D
:100C280013F0010F63D0B54B5B6803F00C03042B82
:100C380046D0B24B5B6803F00C03082B3BD06368CB
:100C4800B3F5803F00F08E80002B40F0918003F1D7
:100C5800804303F504331A6822F480321A601A6854
:100C680022F480221A60A54AD36A23F00F03A168F0
:100C78000B43D3626368002B00F0948001F0D6FE2A
:100C880005464FF4003393FAA3F39C4B19684FF4CD
:100C9800003393FAA3F3B3FA83F303F01F0301229B
:100CA80002FA03F3194222D101F0C0FE401B642866
:100CB800E7D90320ABE2914B5B6813F4803FBED0C9
:100CC8004FF4003393FAA3F38C4B19684FF40033B5
:100CD80093FAA3F3B3FA83F303F01F03012202FA92
:100CE80003F3194203D06368002B00F0898223685C
:100CF80013F0020F00F09C80804B5B6813F00C0F20
:100D080072D07E4B5B6803F00C03082B67D0236915
:100D1800002B00F0CB80012292FAA2F3B3FA83F3FE
:100D280003F1845303F584139B001A6001F07EFEDF
:100D38000546022393FAA3F3704B1968022393FA2A
:100D4800A3F3B3FA83F303F01F03012202FA03F3B8
:100D5800194240F09C8001F069FE401B0228E8D946
:100D6800032054E2654A136843F4803313607AE73A
:100D7800B3F5A02F09D0614B1A6822F480321A60AB
:100D88001A6822F480221A606DE703F18043A3F504
:100D98003C331A6842F480221A601A6842F480329E
:100DA8001A6060E701F042FE05464FF4003393FAFB
:100DB800A3F3524B19684FF4003393FAA3F3B3FA31
:100DC80083F303F01F03012202FA03F319428ED0C2
:100DD80001F02CFE401B6428E7D9032017E2474B9B
:100DE8005B6813F4803F92D1022393FAA3F3434B39
:100DF8001968022393FAA3F3B3FA83F303F01F03EA
:100E0800012202FA03F3194204D02369934201D064
:100E18000120FCE13948036823F0F8036169F822EE
:100E280092FAA2F2B2FA82F201FA02F213430360D2
:100E3800236813F0080F00F08D80A369002B61D0A0
:100E4800012191FAA1F2B2FA82F22D4B13449B00D0
:100E5800196001F0EBFD0546022393FAA3F293FA19
:100E6800A3F293FAA3F2254A516A93FAA3F3B3FAC9
:100E780083F303F01F03012202FA03F3194269D135
:100E880001F0D4FD401B0228E6D90320BFE11B482E
:100E9800036823F0F8036169F82292FAA2F2B2FA21
:100EA80082F201FA02F213430360C1E7012393FAC5
:100EB800A3F3B3FA83F303F1845303F584139B007C
:100EC80000221A6001F0B2FD0546022393FAA3F34B
:100ED8000A4B1968022393FAA3F3B3FA83F303F0D6
:100EE8001F03012202FA03F31942A1D001F09EFD6B
:100EF800401B0228E9D9032089E100BF0010024005
:100F080020819010012292FAA2F2B2FA82F2C14B29
:100F180013449B0000221A6001F088FD0546022355
:100F280093FAA3F293FAA3F293FAA3F2BA4A516A94
:100F380093FAA3F3B3FA83F303F01F03012202FA2F
:100F480003F3194206D001F071FD401B0228E6D9CF
:100F580003205CE1236813F0040F00F0B380AE4B6C
:100F6800DB6913F0805F26D1AB4BDA6942F080521F
:100F7800DA61DB6903F080530193019B0125A74BDC
:100F88001B6813F4807F18D0E368012B29D073BB4A
:100F980003F1804303F504331A6A22F001021A624E
:100FA8001A6A22F004021A62E368002B5DD001F08D
:100FB8003DFD064647E00025E1E7984A136843F4FB
:100FC8008073136001F032FD0646944B1B6813F4DE
:100FD800807FD9D101F02AFD801B6428F5D9032030
:100FE80015E18D4A136A43F001031362DCE7052B10
:100FF80009D0894B1A6A22F001021A621A6A22F091
:1010080004021A62D0E7844B1A6A42F004021A6298
:101018001A6A42F001021A62C6E77F4B196A022374
:1010280093FAA3F3B3FA83F303F01F03012202FA3E
:1010380003F3194245D101F0F9FC801B41F28833D2
:10104800984200F2DF80022393FAA3F293FAA3F303
:10105800B3FA83F35B0943F00203022BDDD00223CA
:1010680093FAA3F36C4B596AD9E701F0DFFC064603
:1010780015E0694B196A022393FAA3F3B3FA83F3D1
:1010880003F01F03012202FA03F3194219D001F0F9
:10109800CDFC801B41F28833984200F2B5800223D0
:1010A80093FAA3F293FAA3F3B3FA83F35B0943F039
:1010B8000203022BDDD0022393FAA3F3564B596A9D
:1010C800D9E7B5BBE369002B00F0A080524A52680B
:1010D80002F00C02082A00F0A380022B2FD04FF058
:1010E800807393FAA3F3B3FA83F303F1845303F5FC
:1010F80084139B0000221A6001F098FC04464FF00C
:10110800007393FAA3F3444B19684FF0007393FAF2
:10111800A3F3B3FA83F303F01F03012202FA03F3E4
:1011280019426BD001F082FC001B0228E7D903208A
:101138006DE0394AD36923F08053D361C2E74FF099
:10114800807393FAA3F3B3FA83F303F1845303F59B
:1011580084139B0000221A6001F068FC05464FF0DA
:10116800007393FAA3F32C4B19684FF0007393FAAA
:10117800A3F3B3FA83F303F01F03012202FA03F384
:10118800194206D001F052FC401B0228E7D903207F
:101198003DE021494B6823F47413626A206A0243D4
:1011A80013434B604FF0807393FAA3F3B3FA83F3BE
:1011B80003F1845303F584139B0001221A6001F0A4
:1011C80035FC04464FF0007393FAA3F3124B1968E9
:1011D8004FF0007393FAA3F3B3FA83F303F01F03FA
:1011E800012202FA03F3194206D101F01FFC001B89
:1011F8000228E7D903200AE0002008E0002006E0E2
:10120800012004E0032002E0032000E0002002B0F7
:1012180070BD00BF20819010001002400070004097
:101228000120F4E7164B5B6803F00C02082A24D16E
:1012380003F470114FF4701292FAA2F2B2FA82F229
:1012480021FA02F20F49885C0D4AD26A02F00F02B5
:101258000F2191FAA1F1B1FA81F1CA400A498A5CD9
:1012680013F4803F03D1094B03FB00F07047084B90
:10127800B3FBF2F303FB00F070470548704700BF6B
:1012880000100240282B0008382B000800093D00F8
:1012980000127A00704B1B6803F007038B420CD2D4
:1012A8006D4A136823F007030B431360136803F0B8
:1012B8000703994201D00120704770B5036813F005
:1012C800020F06D0654A536823F0F003846823436D
:1012D80053600D460446036813F0010F7AD0436843
:1012E800012B2FD0022B42D0022292FAA2F25B4AA3
:1012F8001068022292FAA2F2B2FA82F202F01F02F7
:10130800012101FA02F2104200F0A48053494A6810
:1013180022F0030213434B6001F088FB0646636822
:10132800012B39D0022B46D04C4B5B6813F00C0FC5
:1013380050D001F07BFB801B41F288339842F3D9EF
:10134800032070BD4FF4003292FAA2F2434A1068AB
:101358004FF4003292FAA2F2B2FA82F202F01F02BD
:10136800012101FA02F21042D0D1012070BD4FF0E4
:10137800007292FAA2F2394A10684FF0007292FA9B
:10138800A2F2B2FA82F202F01F02012101FA02F27D
:101398001042BBD1012070BD304B5B6803F00C03D9
:1013A800042B17D001F042FB801B41F2883398428E
:1013B800F2D9032070BD294B5B6803F00C03082B9E
:1013C80008D001F033FB801B41F288339842F2D9F0
:1013D800032070BD204B1B6803F007039D420CD20D
:1013E8001D4A136823F007032B431360136803F0A7
:1013F80007039D4201D0012070BD236813F0040F3C
:1014080006D0164A536823F4E063E1680B4353603F
:10141800236813F0080F07D0104A536823F4605369
:10142800216943EAC1035360FFF7FCFE0B4B5B687D
:1014380003F0F003F02292FAA2F2B2FA82F2D34059
:10144800074AD35CD840074B1860002001F0BEFA69
:10145800002070BD012070BD002002400010024035
:10146800102B000800000020014B1868704700BFCF
:101478000000002008B5FFF7F7FF074B5B6803F48F
:10148800E0634FF4E06292FAA2F2B2FA82F2D34039
:10149800024AD35CD84008BD00100240202B000847
:1014A80008B5FFF7E1FF074B5B6803F460534FF49F
:1014B800605292FAA2F2B2FA82F2D340024AD35CA4
:1014C800D84008BD00100240202B000803685033A4
:1014D80043F8212070470368503353F821007047C0
:1014E800074AD36823F4E0631B041B0C000200F4D2
:1014F800E060184340F0BF6040F40030D0607047AF
:1015080000ED00E030B4164BDB68C3F30223C3F1EF
:101518000704042C28BF04241D1D062D17D9033BDE
:10152800012505FA04F4013C2140994005FA03F32A
:10153800013B1340194300280BDB0901C9B200F134
:10154800604000F5614080F8001330BC704700230C
:10155800E6E700F00F000901C9B2024B1954F4E79D
:1015680000ED00E014ED00E0420900F01F00012347
:1015780003FA00F0014B43F82200704700E100E055
:101588000138B0F1807F0AD2064B5860F021064A34
:1015980082F823100020986007221A607047012003
:1015A800704700BF10E000E000ED00E0042805D01F
:1015B800054A136823F0040313607047024A13684E
:1015C80043F004031360704710E000E0704708B56B
:1015D800FFF7FCFF08BD000000B583B01C4B9A69FB
:1015E80042F001029A619B6903F001030193019B98
:1015F8000320FFF775FF002211466FF00B00FFF77D
:1016080081FF002211466FF00A00FFF77BFF0022DE
:1016180011466FF00900FFF775FF002211466FF0C1
:101628000400FFF76FFF002211466FF00300FFF779
:1016380069FF002211466FF00100FFF763FF0022E7
:1016480011464FF0FF30FFF75DFF03B05DF804FB74
:101658000010024030B589B00368B3F1A04F04D040
:101668002C4A934238D009B030BD04462A4A136840
:1016780001331360012B1FD0072303930323049323
:101688000025059503A92548FEF7B0FD2448254BFC
:101698000360456085608023C3604FF480730361F5
:1016A8004FF4806343618561C56100F003FD70B943
:1016B8001B4BE3635C62D6E71B4B5A6942F08052CE
:1016C8005A615B6903F080530193019BD4E7792148
:1016D800164800F075F9EBE70F4A136801331360F9
:1016E800012B0BD0102303930323049300230593AA
:1016F80003A94FF09040FEF779FDB4E70A4B5A6909
:1017080042F080525A615B6903F080530293029B56
:10171800E8E700BF00010050200000200008004852
:101728007C0100200800024000100240482B0008FD
:101738000268114B9A4200D0704700B587B003F594
:10174800D633DA6942F00072DA61DB6903F00073BC
:101758000093009B4FF440730193022302930023EC
:101768000393032304930923059301A90348FEF770
:101778003DFD07B05DF804FB00640040000400482C
:101788000268084B9A4200D070474FF4004292FA20
:10179800A2F2B2FA82F2044B13449B0001221A60AF
:1017A800F2E700BF00280040008190100268114B4A
:1017B8009A4200D0704700B587B003F560439A6934
:1017C80042F480529A619B6903F480530093009B12
:1017D800E02301930223029300230393032304933A
:1017E8000523059301A94FF09040FEF7FFFC07B0D1
:1017F8005DF804FB003001400268114B9A4200D0AA
:10180800704700B587B003F5E433DA6942F4802203
:10181800DA61DB6903F480230093009B4FF4406393
:1018280001930223029301230393032304930723C1
:10183800059301A90348FEF7D9FC07B05DF804FB3E
:1018480000480040000400487047FEE7FEE7FEE756
:10185800FEE770477047704708B501F0DFF8FFF7FB
:10186800B6FE08BD08B5024800F050FC08BD00BF30
:101878007C0100202DE9F0418AB0404B5A6942F4BE
:1018880000225A615A6902F400220092009A5A69A9
:1018980042F480025A615A6902F480020192019A64
:1018A8005A6942F400325A615A6902F400320292CB
:1018B800029A5A6942F480225A615A6902F48022D3
:1018C8000392039A5A6942F480125A615B6903F4DD
:1018D80080130493049B2A4F002243F6A0513846F4
:1018E800FEF74EFD002241F203014FF09040FEF753
:1018F80047FDDFF8948000224CF2C4014046FEF711
:101908003FFD204E002204213046FEF739FD43F604
:10191800A05305930125069500240794089405A96A
:101928003846FEF763FC41F20303059306950794D6
:10193800089405A94FF09040FEF758FC0427059736
:1019480003230693079405A94FF09040FEF74EFC39
:101958004CF2C403059306950794089405A94046DC
:10196800FEF744FC059706950794089405A93046A8
:10197800FEF73CFC0AB0BDE8F08100BF0010024051
:1019880000080048000C00480004004800B583B077
:101998000A4B5A6942F001025A615B6903F001037C
:1019A8000193019B002211460B20FFF7ABFD0B2092
:1019B800FFF7DAFD03B05DF804FB00BF001002403A
:1019C800FEE7000000B58BB01D484FF0A043036050
:1019D8000023436083600361C361436203630122A0
:1019E800C262C3600262436304224261836183630B
:1019F80000F02AFCC0B90AA9002341F80C3D1048A0
:101A080000F0F2FEA0B906230193012302930023FC
:101A1800049303930593069301A9094800F022FD56
:101A280050B90BB05DF804FBD7210648FFF7C8FF93
:101A3800DF210448FFF7C4FFEC210248FFF7C0FF8D
:101A480028010020602B000800B587B01748184B04
:101A580003600023436083600361C36143620363DF
:101A68000122C262C360026243630422426183614D
:101A7800836300F0E9FB78B9012300930193002305
:101A880003930293049305936946084800F0EAFC1F
:101A980038B907B05DF804FB40F209110548FFF7B3
:101AA8008FFF4FF48B710348FFF78AFF94000020E3
:101AB80000010050602B000808B50C480C4B03606F
:101AC8001023436000238360C36003614361836123
:101AD800C361036243628362C36200F019FA00B90A
:101AE80008BD40F22D110348FFF76AFFE800002007
:101AF80000640040602B000800B591B03548364BB3
:101B08000360002343607F228260FF22C26003617A
:101B180043618361FEF787FE002847D100212D48E5
:101B2800FFF7D9FC43F2F223984224D000238DF822
:101B38002C308DF82D308DF82E300E930F93012216
:101B48000BA92448FEF7CCFE002834D101228DF8D9
:101B580028208DF829208DF82A2000238DF82B3095
:101B68000AA91C48FEF73BFF50BB43F2F2220021B2
:101B78001848FFF7ABFC00238DF800308DF80130D2
:101B88008DF802300193039304930593069307930A
:101B980001228DF820204FF48073099369460D487F
:101BA800FEF78AFF88B911B05DF804FB40F24511D1
:101BB8000A48FFF705FF4FF4A9710848FFF700FF2F
:101BC8004FF4AE710548FFF7FBFE4FF4B8710348B8
:101BD800FFF7F6FEC001002000280040602B000837
:101BE80008B51148114B03604FF48273436000231A
:101BF80083604FF4E062C260036143614FF4007296
:101C080082613822C2610362436283620722C26230
:101C18000363436300F082FE00B908BD40F28911F6
:101C28000348FFF7CDFE00BFE0010020003001406F
:101C3800602B000808B50C480C4B03604FF41643A2
:101C480043600023C36003610C2242618361C36166
:101C580003624362FEF747FD00B908BD40F29D11DB
:101C68000348FFF7ADFE00BF2400002000480040F5
:101C7800602B000800B597B009230C934FF480330C
:101C88000D9300220E9201221092129202221392B8
:101C980014934FF4E01315930CA8FEF7BDFF68BB2F
:101CA8000F23079302210891002309934FF48062C0
:101CB8000A920B9307A8FFF7EDFA18BB154B009390
:101CC8004FF4807304934FF400730193684600F057
:101CD80049F8D8B9FFF7C8FB0F4BA3FB00308009C0
:101CE800FFF74EFC0420FFF761FC002211464FF07D
:101CF800FF30FFF707FC17B05DF804FB9921074890
:101D0800FFF75EFEA7210548FFF75AFEAF210348FB
:101D1800FFF756FE80000100D34D6210602B0008CB
:101D280008B500F069FEFFF7A5FFFFF7A3FDFFF771
:101D38002DFEFFF747FEFFF787FEFFF7BDFEFFF713
:101D4800DBFEFFF74DFFFFF775FF4FF48071044886
:101D5800FEF71BFB4FF47A7000F06EFEF5E700BF4C
:101D680000080048F0B583B00446036813F4803FC8
:101D780044D0644BDB6913F0805F79D1614BDA6939
:101D880042F08052DA61DB6903F080530193019BD2
:101D980001255D4B1B6813F4807F6BD0594B1B6A80
:101DA80013F4407321D0626802F4407293421CD04D
:101DB8005448016A21F440764FF4803393FAA3F231
:101DC800B2FA82F2514F3A4492004FF0010EC2F833
:101DD80000E093FAA3F3B3FA83F33B449B00002299
:101DE8001A60066211F0010F58D1464A136A23F4AB
:101DF800407361680B431362002D7AD1236813F096
:101E0800010F06D03F4A136B23F00303A1680B436D
:101E18001363236813F0200F06D03A4A136B23F09C
:101E28001003E1680B431363236813F0800F06D097
:101E3800344AD36A23F4F87321690B43D3622368C5
:101E480013F4805F06D02F4A136B23F48073616903
:101E58000B431363236813F4804F51D0294A136B43
:101E680023F48053A1690B431363002003B0F0BD32
:101E780000258EE7244A136843F48073136000F04A
:101E8800D5FD0646204B1B6813F4807F86D100F0F1
:101E9800CDFD801B6428F5D90320E7E700F0C6FDD7
:101EA800064614E0174B196A022393FAA3F3B3FA10
:101EB80083F303F01F03012202FA03F3194294D1BA
:101EC80000F0B4FD801B41F28833984216D80223F3
:101ED80093FAA3F293FAA3F3B3FA83F35B0943F0FB
:101EE8000203022BDED0022393FAA3F3054B596AAF
:101EF800DAE7D36923F08053D3617FE70320B5E79E
:101F08000020B3E7001002400070004000819010EC
:101F1800002800F0BB8038B5044690F8393003B388
:101F2800022384F839302268136823F0020313600F
:101F38002268136843F00103136000F077FD05463B
:101F480023685A6812F0010F10D100F06FFD401B92
:101F58000A28F5D9032084F83900002384F838309A
:101F680038BD80F83830FFF7E3FBD9E75A6812F03C
:101F7800010F7CD0A269012A50D01A6822F0800291
:101F88001A60E369012B4ED02268136823F04003DE
:101F98001360236A012B4CD02268136823F02003B6
:101FA8001360636A012B4AD02268136823F0100378
:101FB8001360A36A012B48D02268136823F0080332
:101FC8001360E36A012B46D02268136823F00403E8
:101FD80013602168A368E2681343226913436269A6
:101FE80013436268013A1343CB612268136823F0F4
:101FF8000103136000F01AFD054623685A6812F0C1
:10200800010F2ED000F012FD401B0A28F5D903203D
:1020180084F83900002384F8383038BD1A6842F053
:1020280080021A60ADE72268136843F0400313602A
:10203800AFE72268136843F020031360B1E7226812
:10204800136843F010031360B3E72268136843F082
:1020580008031360B5E72268136843F004031360AC
:10206800B7E75B6813F0010F08D0002300E00023F6
:1020780033B9042384F83930012038BD0123F7E748
:102088000020E063012384F8393038BD012070470F
:102098000268054B1344054AA2FB03231B099B0056
:1020A8000364034BC3637047F8FFFDBFCDCCCCCCB2
:1020B8000000024040B310B50446022380F82130E6
:1020C80001680A6822F47F5222F03002436880686F
:1020D8000343E06803432069034360690343A0693D
:1020E8000343E069034313430B602046FFF7D0FF27
:1020F8000020A062E06220636063A063012384F88B
:10210800213084F8200010BD0120704738B5C36B1A
:102118001A6804682568016C04238B401A4214D09D
:1021280015F0040F11D0236813F0200F03D1236892
:1021380023F004032360C26B016C04238B405360BB
:10214800C36A002B3AD0984738BD02238B401A4205
:1021580019D015F0020F16D0236813F0200F06D1FE
:10216800236823F00A032360012380F82130C26B1F
:10217800016C02238B405360002380F82030836A6F
:10218800E3B1984738BD082303FA01F10A4215D094
:1021980015F0080F12D0236823F00E032360C16BDB
:1021A800026C012303FA02F24A60836380F821304B
:1021B800002380F82030036B03B1984738BD38B549
:1021C8000268936803F00303012B11D00023002B4E
:1021D80037D0936803F00D03012B11D0436C43F003
:1021E80010034364836C43F001038364012038BD0A
:1021F800136813F0010F01D10023E8E70123E6E794
:102208000446936843F002039360036803221A604C
:1022180000F00CFC054623689B6813F0010F0ED0F4
:1022280000F004FC401B0228F5D9636C43F010034E
:102238006364A36C43F00103A364012038BD00204C
:1022480038BD002038BD000030B597B0002300939A
:10225800002800F0FB800446436C13F0100F51D1A6
:10226800436CABB1002023689A6812F0805F03D0FA
:102278009B6813F0005F46D0636C23F0120343F0B1
:1022880010036364A36C43F00103A36401203AE0E4
:1022980083640365C36480F84030FFF7DBF9236883
:1022A8009B6813F0805F01D00020DCE72046FFF731
:1022B80086FF636C13F0100FD5D10028D3D1636C5F
:1022C80023F4885323F0020343F002036364226873
:1022D800936823F0405393602268936843F08053D7
:1022E80093605B4B1B685B4AA2FB03239B0C03EBCD
:1022F80083035A000092009B002BB4D0009B013B43
:102308000093F8E70020636C13F0100F40F09580FD
:10231800002840F092802268936813F0040340F08C
:102328008C80616C21F4817141F002016164B2F129
:10233800A04F55D04FF0A0410191916801F00301E1
:10234800012950D0002272B9019D2DB1A96801F070
:10235800030101294FD032B93F498A6822F440323B
:1023680065682A438A60E2695103A56B012D01D093
:102378004FF480530B43E1680B43A1680B43616A38
:1023880001293ED0E26A012A02D0216B0A43134395
:102398002268916811F00C0F0BD1D16821F48041AB
:1023A80021F00201D160A169626B520042EA8132D8
:1023B80013432168CD68294A2A401343CB60236917
:1023C800012B31D02268136B23F00F031363002312
:1023D800A364636C23F0030343F00103636433E0F5
:1023E8001F490191A9E7126812F0010F01D10022DB
:1023F800A9E70122A7E7296811F0010FABD0012254
:10240800A9E732B9A26A013A43EA424343F4803366
:10241800B8E7626C22F0220242F020026264A26CE9
:1024280042F00102A264ADE721680B6B23F00F03B1
:10243800226A013A13430B63C9E7636C23F0120362
:1024480043F010036364012017B030BD0120FBE79F
:102458000000002083DE1B430003005007C0F0FF8C
:102468000001005070B497B00022009290F840200C
:10247800012A00F0AD810346012280F8402000685F
:10248800826812F0040F40F096814A68042A31D815
:10249800046B02EB420255001F22AA4024EA020202
:1024A8000C68AC40224302631868826812F00C0F73
:1024B80068D10A68092A4ED9846902EB42021E3A99
:1024C8000725954024EA05048D6805FA02F222439F
:1024D800826148691C68E268C2F3C102520000FACE
:1024E80002F208690138032800F28F80DFE800F063
:1024F800406C7782092A0ED8446B02EB42025500E1
:102508001E3D1F22AA4024EA02020C6804FA05F5BF
:102518002A434263C8E70E2A0ED8846B02EB4202B4
:1025280055003C3D1F22AA4024EA02020C6804FA26
:1025380005F52A438263B7E7C46B02EB42025500F4
:102548005A3D1F22AA4024EA02020C6804FA05F543
:102558002A43C263A8E7446902EB42020725954073
:1025680024EA05048D6805FA02F222434261B0E7C5
:10257800206E984D0540086842EA8062154345F090
:10258800004525661868826802F00302012A6FD0A8
:102598000022002A40F01A81CC68012C70D0D0F8B3
:1025A800B0400E680125B54024EA0504C0F8B040E3
:1025B8000968102900F08D80112900F0AF801229D8
:1025C80000F0B2800020FBE0606E824D0540086894
:1025D80042EA8062154345F000456566D2E7A06E81
:1025E8007C4D0540086842EA8062154345F0004585
:1025F800A566C7E7E56E774828400D6842EA856218
:10260800024342F00042E266BCE7226E02F0F84262
:102618000868B2EB806F1CD01868426E02F0F8426E
:102628000C68B2EB846F19D01868826E02F0F84219
:102638000C68B2EB846F16D01868C26E02F0F842CC
:102648000C68B2EB846F9DD1C26E22F00042C26664
:1026580098E7226E22F000422266DDE7426E22F001
:1026680000424266E0E7826E22F000428266E3E7BB
:10267800026812F0010F01D100228AE7012288E7DF
:10268800D0F8B0400E680125B5402C43C0F8B040E2
:10269800086809280ED91E68B46900EB40001B3889
:1026A8000725854024EA05048D6805FA00F02043D3
:1026B800B0617DE71E687469013000EB40000725B2
:1026C800854024EA05048D6805FA00F0204370610E
:1026D8006EE74148806810F4000F7FF46DAF1C6806
:1026E800B4F1A04F27D04FF0A0400190A06800F0AF
:1026F8000300012822D0002A57D1019D35B1A868CE
:1027080000F0030001281FD0002A4ED1102921D043
:10271800112939D0122941D0002051E02E48806873
:1027280010F0807FDBD04AE72B48806810F4800FD8
:10273800D5D0002044E029480190D7E7206810F060
:10274800010FD8D00122D6E7286810F0010FDBD09E
:102758000122D9E7B4F1A04FDAD11F498A6842F4BF
:1027680000028A601E4A12681E49B2FBF1F10A2271
:1027780002FB01F2009202E0009A013A0092009AEC
:10278800002AF9D100201BE0B4F1A04FC2D11249B0
:102798008A6842F080728A60002011E00E498A68D7
:1027A80042F480028A6000200AE05A6C42F020025B
:1027B8005A64012004E05A6C42F020025A64012055
:1027C800002283F8402017B070BC70470020F7E75C
:1027D8000220F8E700F0FF830003005000010050DA
:1027E8000000002040420F0090F84020012A00F02D
:1027F8008E8070B497B00346012280F840200268AA
:10280800B2F1A04F35D04FF0A0400190926812F07D
:10281800040F69D1019A906810F0040F64D1086818
:10282800002837D03B4DA86820F460404C685E6BA8
:1028380044EA46342043A8601C68A06800F00300FE
:10284800012819D00020002859D1946804F0030405
:10285800012C19D0002854D12E4CA26822F47162A0
:1028680022F00F020868896801430A43A260002029
:102878003FE029480190C9E7206810F0010F01D115
:102888000020E0E70120DEE7126812F0010FE1D036
:102898000120DFE71F48816821F4604181601868E2
:1028A800816801F00301012910D0002159BB90680B
:1028B80000F00300012811D039BB16498A6822F4B8
:1028C800716222F00F028A60002012E0016811F0A4
:1028D800010F01D10021E9E70121E7E7126812F0B1
:1028E800010FE9D00121E7E75A6C42F020025A644F
:1028F8000120002283F8402017B070BC70470020E8
:10290800F7E70020F5E70020F3E70020F1E70220D1
:10291800704700BF0003005000010050002853D04A
:1029280010B504460023836290F85D30002B40D038
:10293800022384F85D302268136823F04003136093
:10294800E368B3F5E06F39D90021B3F5706F04D0AF
:10295800B3F5E06F01D00022A262226B22B9B3F571
:10296800E06F2ED90223236322686368A0680343BB
:102978002069034360690343A06900F400700343BE
:10298800E0690343206A0343A06A03431360226893
:10299800638B03F00403606A0343606B0343E068DE
:1029A80003430B43536000202066012384F85D3005
:1029B80010BD80F85C30FEF7F9FEB9E74FF480519E
:1029C800C3E701232363CFE70120704710B504460E
:1029D800074B1868074BA3FB00308009FEF7D0FDB2
:1029E800002221464FF0FF30FEF78CFD002010BD7D
:1029F80000000020D34D621008B5074A136843F061
:102A0800100313600320FEF76BFD0020FFF7DEFFC5
:102A1800FEF7E2FD002008BD00200240024A1368CC
:102A280001331360704700BF44020020014B18684F
:102A3800704700BF4402002010B582B00190FFF734
:102A4800F5FF0446FFF7F2FF001B019B9842F9D3FC
:102A580002B010BDDFF834D0002103E00C4B5B5806
:102A6800435004310B480C4B42189A42F6D30B4A98
:102A780002E0002342F8043B094B9A42F9D3FDF7E0
:102A880067FE00F011F8FFF74BF9FEE70030002071
:102A9800742B00080000002004000020040000201F
:102AA80048020020FEE7000070B50D4E0D4CA41B37
:102AB800A4100025A54209D10B4E0C4C00F018F8C3
:102AC800A41BA4100025A54205D170BD56F82530D9
:102AD80098470135EEE756F8253098470135F2E773
:102AE8006C2B00086C2B00086C2B0008702B00085E
:102AF800F8B500BFF8BC08BC9E467047F8B500BFE3
:082B0800F8BC08BC9E467047B2
:102B1000000000000000000001020304060708098D
:102B2000000000000102030402030405060708096F
:102B30000A0B0C0D0E0F1010010203040506070806
:102B4000090A0B0C0D0E0F105372632F73746D3343
:102B500032663378785F68616C5F6D73702E6300E6
:0C2B60005372632F6D61696E2E630000DC
:042B6C00AD010008AF
:042B700089010008CF
:042B740000127A00D1
:0400000508002A5D68
:00000001FF
