:020000040800F2
:1000000000300020A53200085516000857160008D9
:10001000591600085B1600085D1600080000000075
:100020000000000000000000000000005F16000853
:10003000611600080000000063160008651600083D
:10004000F5320008F5320008F5320008F5320008F4
:10005000F5320008F5320008F5320008F5320008E4
:10006000F5320008F5320008F53200087116000874
:10007000F5320008F5320008F5320008F5320008C4
:10008000F5320008F5320008F5320008F5320008B4
:10009000F5320008F5320008F5320008F5320008A4
:1000A000F5320008F5320008F5320008F532000894
:1000B000F5320008F532000800000000F5320008B3
:1000C000F53200080000000000000000F5320008D2
:1000D00000000000F5320008F5320008F532000893
:1000E000F5320008F53200080000000000000000B2
:1000F0000000000000000000000000000000000000
:1001000000000000000000000000000000000000EF
:100110000000000000000000F5320008F532000881
:1001200000000000000000000000000000000000CF
:1001300000000000000000000000000000000000BF
:10014000F5320008F532000800000000F532000822
:10015000F5320008F5320008F5320008F5320008E3
:10016000F5320008F5320008000000000000000031
:10017000000000000000000000000000000000007F
:0801800000000000F532000848
:1001880010B5054C237833B9044B13B10448AFF3C9
:1001980000800123237010BD04000020000000002F
:1001A800403300080C4B43B10C480D4910B5AFF370
:1001B80000800C48036823B910BD0A48036833B9A6
:1001C8007047094B002BF7D0BDE810401847064B85
:1001D800002BF5D0184700BF00000000403300088E
:1001E800080000200400002000000000F0B583B0E3
:1001F800002388E0DE08083650F8264003F0070E92
:100208004FEA8E0E0F2707FA0EF724EA07040F6944
:1002180007FA0EF73C4340F8264083E086682640FC
:10022800CF6807FA0EF73E438660466826EA05055A
:100238004E68C6F300169E4035434560C5682C409D
:100248008D6805FA0EF52C43C4604C6814F0805F85
:1002580058D0474CA56945F00105A561A46904F08B
:1002680001040194019C9D08AE1C424C54F82640A0
:1002780003F00306B6000F27B74024EA0704B0F1DD
:10028800904F6CD03C4FB8426BD007F58067B842AE
:1002980069D007F58067B8425FD0052707FA06F6E8
:1002A80034430235334E46F82540344C2568D44350
:1002B80005EA04064F6817F4803F01D042EA0506B4
:1002C8002E4D2E606D6804EA05064F6817F4003F4E
:1002D80001D042EA0506294D6E60AD6804EA0506BC
:1002E8004F6817F4801F01D042EA0506234DAE601F
:1002F800ED682C404E6816F4001F01D042EA050450
:100308001E4AD46001330A6832FA03F42DD001255D
:100318009D402A40F6D04C68022C3FF46BAF122C5B
:100328003FF468AF06684FEA430E032404FA0EF45C
:10033800E44326404F6807F0030707FA0EF73E43E9
:1003480006604E68771E012F7FF668AF112E3FF4C6
:1003580065AF122E7FF472AF60E703279EE7002790
:100368009CE701279AE7022798E703B0F0BD00BF92
:100378000010024000000140000400480004014051
:100388000AB98162704781617047000038B5044638
:1003980083680269134342691343C26913430168BE
:1003A8000868644A024013430B602268536823F4C8
:1003B8004053E1680B435360A369226A13432168E1
:1003C8008A6822F4306213438B6025685A4B9D4239
:1003D80015D05A4B9D4229D003F580639D4221D008
:1003E8001023E269B2F5004F22D0082B00F29F805B
:1003F800DFE803F066717C9D889D9D9D930003F561
:1004080058431B6B03F00303032B09D8DFE803F001
:100418000204060C0023E4E70423E2E70823E0E7EC
:100428001023DEE70023DCE70223DAE70023D8E71E
:10043800082B42D8DFE803F0051722412D4141413E
:10044800380001F013F86268530803EB4003B3FB6C
:10045800F2F39BB2002023F00F02C3F342031343CD
:100468002268D36038BD01F017F86268530803EBBF
:100478004003B3FBF2F39BB20020ECE76268530839
:1004880003F5740303F51053B3FBF2F39BB200209A
:10049800E1E700F0C3FE6268530803EB4003B3FBD7
:1004A800F2F39BB20020D6E76268530803F5803365
:1004B800B3FBF2F39BB20020CDE701200023CAE78B
:1004C80000F0D4FF636800EB5300B0FBF3F080B298
:1004D800E860002038BD00F0DFFF636800EB5300E0
:1004E800B0FBF3F080B2E860002038BD62685308C2
:1004F80003F5F40303F59053B3FBF2F39BB2EB60FF
:10050800002038BD00F08AFE636800EB5300B0FBA2
:10051800F3F080B2E860002038BD6268530803F544
:100528000043B3FBF2F39BB2EB60002038BD01201F
:1005380038BD00BFF369FFEF0038014000440040B8
:10054800436A13F0010F06D00268536823F400339E
:10055800816A0B435360436A13F0020F06D00268A6
:10056800536823F48033C16A0B435360436A13F022
:10057800040F06D00268536823F48023016B0B43F1
:100588005360436A13F0080F06D00268536823F4D7
:100598000043416B0B435360436A13F0100F06D0BE
:1005A8000268936823F48053816B0B439360436A1A
:1005B80013F0200F06D00268936823F40053C16B30
:1005C8000B439360436A13F0400F0AD002685368E4
:1005D80023F48013016C0B435360036CB3F5801F45
:1005E8000BD0436A13F0800F06D00268536823F4D7
:1005F8000023816C0B43536070470268536823F4EF
:10060800C003416C0B435360EBE72DE9F04105460D
:100618000F4616469846069C2B68DB6937EA0303A3
:100628000CBF01230023B3421ED1B4F1FF3FF3D026
:100638002CB102F01FFEA0EB08008442ECD22A681D
:10064800136823F4D07313602A68936823F00103B6
:100658009360202385F8693085F86A30002385F88F
:1006680068300320BDE8F0810020BDE8F08130B596
:1006780083B004460023C36602F0FCFD05462368E8
:100688001B6813F0080F0ED123681B6813F0040FC2
:1006980017D1202384F8693084F86A30002084F860
:1006A800680003B030BD6FF07E430093034600221C
:1006B8004FF400112046FFF7A8FF0028E4D00320DC
:1006C800EFE76FF07E4300932B4600224FF4800142
:1006D8002046FFF79AFF0028DBD00320E1E778B334
:1006E80010B5044690F869300BB3242384F86930B8
:1006F8002268136823F0010313602046FFF746FEC3
:1007080001281FD0636ABBB92268536823F4904359
:1007180053602268936823F02A0393602268136861
:1007280043F0010313602046FFF7A1FF10BD80F8D6
:10073800683001F0A1FBD8E72046FFF701FFE3E7A7
:100748000120704710BD00001549D1F8883043F4E6
:100758007003C1F88830134B1A6842F001021A601E
:100768005868114A02405A601A6822F0847222F4CA
:1007780080321A601A6822F480221A605A6822F4B9
:10078800FE025A60DA6A22F00F02DA62186B074A30
:1007980002401A6300229A604FF000638B60704732
:1007A80000ED00E0001002400CC07FF8CCFC00FF18
:1007B80038B504460268D36823F0A003D36002F07A
:1007C80059FD05462368DB6813F0200F07D102F0B6
:1007D80051FD401BB0F57A7FF4D9032038BD0020C5
:1007E80038BD38B50368DA6812F0400F01D0002030
:1007F80038BD04464FF0FF32DA6002F03BFD054693
:100808002368DB6813F0400F07D102F033FD401B6B
:10081800B0F57A7FF4D9032038BD002038BD002810
:100828004CD038B50446437F002B3CD00223637775
:100838002368CA225A62236853225A622046FFF765
:10084800D0FF0246002832D121688B6823F4E003E8
:1008580023F040038B6020688168636825692B4317
:1008680065692B430B4383602368E168196121683C
:100878000B69A06843EA00430B612168CB6823F049
:100888008003CB6021680B6C23F480230B64216800
:100898000B6CA06903430B642368FF215962012391
:1008A8006377104638BD037701F018FABEE723686E
:1008B800FF225A62042363770122F2E701221046DD
:1008C8007047002302E001330A38C0B20928FAD879
:1008D8001B01DBB218437047F8B5037F012B77D0B3
:1008E8000E4604460123037702234377002A46D1A4
:1008F80003689B6813F0400F01D10023CB70307858
:10090800FFF7DFFF05047078FFF7DBFF45EA0025F6
:10091800B078FFF7D6FF2843F57840EA0545236805
:10092800CA225A62236853225A622046FFF759FFA7
:100938000746002835D1236805F07F3525F0FE45A8
:100948001D602268936823F48023936021688B6874
:10095800F2683069024313438B602268D36823F03E
:100968008003D36023689B6813F0200F22D023688C
:10097800FF225A62012363770023237729E0036863
:100988009B6813F0400F01D10023CB703578707845
:10099800000240EA0540B5782843F57840EA054565
:1009A800BDE72368FF225A62042363770023237775
:1009B80001270EE02046FFF7FBFE0028D7D023686A
:1009C800FF225A620423637700232377012700E07C
:1009D80002273846F8BD70B5037F012B65D0012387
:1009E8000377022343773AB94B7813F0100F03D0FB
:1009F80003F0EF030A334B700E460446002A32D147
:100A0800C878FFF75EFF05047078FFF75AFF45EADC
:100A18000025B078FFF755FF2843357840EA45357B
:100A28002368CA225A62236853225A622046FFF773
:100A3800D8FE064610BB236825F07F4525F0C00583
:100A48005D602268D36823F08003D36023689B68C5
:100A580013F0200F1BD02368FF225A62012363770B
:100A68000023237722E048788D78CB78000240EA8B
:100A7800034028430D7840EA4535D1E72368FF2233
:100A88005A62042363770023237701260EE0204669
:100A9800FFF78EFE0028DED02368FF225A62042367
:100AA800637700232377012600E00226304670BDD5
:100AB800F8B5037F012B00F0A9800D4604460123F9
:100AC800037702234377002A4DD103689B6813F00C
:100AD800400F01D10023CB70EE692878FFF7F1FEB3
:100AE80007046878FFF7EDFE47EA0027A878FFF7C4
:100AF800E8FE0743E87847EA004795F82000FFF743
:100B0800E0FE47EA006006436B691E436F68AB6905
:100B18001F432368CA225A62236853225A626B6AA7
:100B2800B3F5807F39D02268936823F4007393600B
:100B38002268936823F40053936002F09BFB0546F8
:100B48002368DA6812F0020F50D102F093FB401BC1
:100B5800B0F57A7FF4D92368FF225A6203206077C0
:100B680000232377F8BD03689B6813F0400F01D179
:100B78000023CB70EE692A786B781B0243EA0243A4
:100B8800AA781343EA7843EA024395F8202043EA17
:100B980002631E436B691E43B8E72268936823F417
:100BA800807393602268936823F48053936002F003
:100BB80061FB05462368DA6812F0010F0DD102F0D7
:100BC80059FB401BB0F57A7FF4D92368FF225A629B
:100BD8000320607700232377F8BDDE6123685F6414
:100BE8002268936843F48073936007E01E62236869
:100BF8009F642268936843F4007393602368FF221C
:100C08005A620123637700202077F8BD0220F8BDDF
:100C180070B582B00446036813F0010F63D0B54B7A
:100C28005B6803F00C03042B46D0B24B5B6803F0FF
:100C38000C03082B3BD06368B3F5803F00F08E802F
:100C4800002B40F0918003F1804303F504331A68C8
:100C580022F480321A601A6822F480221A60A54AA7
:100C6800D36A23F00F03A1680B43D3626368002B98
:100C780000F0948002F0FEFA05464FF4003393FA30
:100C8800A3F39C4B19684FF4003393FAA3F3B3FA18
:100C980083F303F01F03012202FA03F3194222D15E
:100CA80002F0E8FA401B6428E7D90320ABE2914B35
:100CB8005B6813F4803FBED04FF4003393FAA3F37C
:100CC8008C4B19684FF4003393FAA3F3B3FA83F308
:100CD80003F01F03012202FA03F3194203D06368E9
:100CE800002B00F08982236813F0020F00F09C802B
:100CF800804B5B6813F00C0F72D07E4B5B6803F07F
:100D08000C03082B67D02369002B00F0CB8001224D
:100D180092FAA2F3B3FA83F303F1845303F584132D
:100D28009B001A6002F0A6FA0546022393FAA3F381
:100D3800704B1968022393FAA3F3B3FA83F303F011
:100D48001F03012202FA03F3194240F09C8002F0CB
:100D580091FA401B0228E8D9032054E2654A136837
:100D680043F4803313607AE7B3F5A02F09D0614BC1
:100D78001A6822F480321A601A6822F480221A60F3
:100D88006DE703F18043A3F53C331A6842F48022EF
:100D98001A601A6842F480321A6060E702F06AFA50
:100DA80005464FF4003393FAA3F3524B19684FF4F6
:100DB800003393FAA3F3B3FA83F303F01F0301227A
:100DC80002FA03F319428ED002F054FA401B642849
:100DD800E7D9032017E2474B5B6813F4803F92D1B1
:100DE800022393FAA3F3434B1968022393FAA3F35C
:100DF800B3FA83F303F01F03012202FA03F3194243
:100E080004D02369934201D00120FCE139480368EA
:100E180023F0F8036169F82292FAA2F2B2FA82F298
:100E280001FA02F213430360236813F0080F00F07D
:100E38008D80A369002B61D0012191FAA1F2B2FA49
:100E480082F22D4B13449B00196002F013FA0546F9
:100E5800022393FAA3F293FAA3F293FAA3F2254A90
:100E6800516A93FAA3F3B3FA83F303F01F03012241
:100E780002FA03F3194269D102F0FCF9401B022877
:100E8800E6D90320BFE11B48036823F0F803616932
:100E9800F82292FAA2F2B2FA82F201FA02F21343AB
:100EA8000360C1E7012393FAA3F3B3FA83F303F1D1
:100EB800845303F584139B0000221A6002F0DAF9C8
:100EC8000546022393FAA3F30A4B1968022393FAFF
:100ED800A3F3B3FA83F303F01F03012202FA03F327
:100EE8001942A1D002F0C6F9401B0228E9D9032013
:100EF80089E100BF0010024020819010012292FA7F
:100F0800A2F2B2FA82F2C14B13449B0000221A608B
:100F180002F0B0F90546022393FAA3F293FAA3F27A
:100F280093FAA3F2BA4A516A93FAA3F3B3FA83F392
:100F380003F01F03012202FA03F3194206D002F05C
:100F480099F9401B0228E6D903205CE1236813F0D5
:100F5800040F00F0B380AE4BDB6913F0805F26D13D
:100F6800AB4BDA6942F08052DA61DB6903F08053F7
:100F78000193019B0125A74B1B6813F4807F18D0B0
:100F8800E368012B29D073BB03F1804303F50433D5
:100F98001A6A22F001021A621A6A22F004021A621C
:100FA800E368002B5DD002F065F9064647E00025AE
:100FB800E1E7984A136843F48073136002F05AF922
:100FC8000646944B1B6813F4807FD9D102F052F97E
:100FD800801B6428F5D9032015E18D4A136A43F074
:100FE80001031362DCE7052B09D0894B1A6A22F04A
:100FF80001021A621A6A22F004021A62D0E7844BCC
:101008001A6A42F004021A621A6A42F001021A626B
:10101800C6E77F4B196A022393FAA3F3B3FA83F363
:1010280003F01F03012202FA03F3194245D102F02B
:1010380021F9801B41F28833984200F2DF800223B5
:1010480093FAA3F293FAA3F3B3FA83F35B0943F099
:101058000203022BDDD0022393FAA3F36C4B596AE7
:10106800D9E702F007F9064615E0694B196A022329
:1010780093FAA3F3B3FA83F303F01F03012202FAEE
:1010880003F3194219D002F0F5F8801B41F28833B6
:10109800984200F2B580022393FAA3F293FAA3F3DD
:1010A800B3FA83F35B0943F00203022BDDD002237A
:1010B80093FAA3F3564B596AD9E7B5BBE369002BFA
:1010C80000F0A080524A526802F00C02082A00F090
:1010D800A380022B2FD04FF0807393FAA3F3B3FAB7
:1010E80083F303F1845303F584139B0000221A60F1
:1010F80002F0C0F804464FF0007393FAA3F3444B90
:1011080019684FF0007393FAA3F3B3FA83F303F06B
:101118001F03012202FA03F319426BD002F0AAF866
:10112800001B0228E7D903206DE0394AD36923F070
:101138008053D361C2E74FF0807393FAA3F3B3FAF5
:1011480083F303F1845303F584139B0000221A6090
:1011580002F090F805464FF0007393FAA3F32C4B76
:1011680019684FF0007393FAA3F3B3FA83F303F00B
:101178001F03012202FA03F3194206D002F07AF89B
:10118800401B0228E7D903203DE021494B6823F49E
:101198007413626A206A024313434B604FF08073F2
:1011A80093FAA3F3B3FA83F303F1845303F5841397
:1011B8009B0001221A6002F05DF804464FF00073AC
:1011C80093FAA3F3124B19684FF0007393FAA3F341
:1011D800B3FA83F303F01F03012202FA03F319425F
:1011E80006D102F047F8001B0228E7D903200AE0DD
:1011F800002008E0002006E0012004E0032002E0CF
:10120800032000E0002002B070BD00BF20819010D4
:1012180000100240007000400120F4E7164B5B68A4
:1012280003F00C02082A24D103F470114FF4701251
:1012380092FAA2F2B2FA82F221FA02F20F49885C1B
:101248000D4AD26A02F00F020F2191FAA1F1B1FA08
:1012580081F1CA400A498A5C13F4803F03D1094BE3
:1012680003FB00F07047084BB3FBF2F303FB00F0FD
:1012780070470548704700BF0010024070330008EF
:101288008033000800093D0000127A00704B1B688B
:1012980003F007038B420CD26D4A136823F007034F
:1012A8000B431360136803F00703994201D0012030
:1012B800704770B5036813F0020F06D0654A53688B
:1012C80023F0F0038468234353600D460446036803
:1012D80013F0010F7AD04368012B2FD0022B42D094
:1012E800022292FAA2F25B4A1068022292FAA2F251
:1012F800B2FA82F202F01F02012101FA02F2104250
:1013080000F0A48053494A6822F0030213434B605B
:1013180001F0B0FF06466368012B39D0022B46D096
:101328004C4B5B6813F00C0F50D001F0A3FF801BEF
:1013380041F288339842F3D9032070BD4FF400324C
:1013480092FAA2F2434A10684FF4003292FAA2F2DB
:10135800B2FA82F202F01F02012101FA02F21042EF
:10136800D0D1012070BD4FF0007292FAA2F2394A32
:1013780010684FF0007292FAA2F2B2FA82F202F00A
:101388001F02012101FA02F21042BBD1012070BDF7
:10139800304B5B6803F00C03042B17D001F06AFF95
:1013A800801B41F288339842F2D9032070BD294B43
:1013B8005B6803F00C03082B08D001F05BFF801B6F
:1013C80041F288339842F2D9032070BD204B1B6844
:1013D80003F007039D420CD21D4A136823F007034C
:1013E8002B431360136803F007039D4201D00120CB
:1013F80070BD236813F0040F06D0164A536823F40F
:10140800E063E1680B435360236813F0080F07D0CB
:10141800104A536823F46053216943EAC1035360B7
:10142800FFF7FCFE0B4B5B6803F0F003F02292FA27
:10143800A2F2B2FA82F2D340074AD35CD840074BF3
:101448001860002001F0E6FE002070BD012070BD8C
:10145800002002400010024058330008000000201D
:10146800014B1868704700BF0000002008B5FFF75F
:10147800F7FF074B5B6803F4E0634FF4E06292FA0E
:10148800A2F2B2FA82F2D340024AD35CD84008BD35
:10149800001002406833000808B5FFF7E1FF074B6A
:1014A8005B6803F460534FF4605292FAA2F2B2FA06
:1014B80082F2D340024AD35CD84008BD00100240F3
:1014C800683300080368503343F8212070470368E5
:1014D800503353F821007047074AD36823F4E06378
:1014E8001B041B0C000200F4E060184340F0BF60CE
:1014F80040F40030D060704700ED00E030B4164B87
:10150800DB68C3F30223C3F10704042C28BF0424B7
:101518001D1D062D17D9033B012505FA04F4013CCE
:101528002140994005FA03F3013B13401943002871
:101538000BDB0901C9B200F1604000F5614080F899
:10154800001330BC70470023E6E700F00F000901E4
:10155800C9B2024B1954F4E700ED00E014ED00E0C5
:10156800420900F01F00012303FA00F0014B43F881
:101578002200704700E100E00138B0F1807F0AD214
:10158800064B5860F021064A82F823100020986024
:1015980007221A6070470120704700BF10E000E082
:1015A80000ED00E0042805D0054A136823F0040381
:1015B80013607047024A136843F0040313607047CE
:1015C80010E000E0704708B5FFF7FCFF08BD000019
:1015D80000B583B01C4B9A6942F001029A619B697D
:1015E80003F001030193019B0320FFF775FF00221D
:1015F80011466FF00B00FFF781FF002211466FF0D4
:101608000A00FFF77BFF002211466FF00900FFF781
:1016180075FF002211466FF00400FFF76FFF0022EC
:1016280011466FF00300FFF769FF002211466FF0C3
:101638000100FFF763FF002211464FF0FF30FFF76C
:101648005DFF03B05DF804FB001002407047FEE741
:10165800FEE7FEE7FEE770477047704708B501F000
:1016680001FEFFF7B0FF08BD08B5024800F04EFFC5
:1016780008BD00BFB403002008B50122202104489A
:10168800FEF77EFE4FF47A7001F0FAFD014808BDBE
:1016980000080048A116000808B501228021044866
:1016A800FEF76EFE4FF47A7001F0EAFD014808BDBE
:1016B80000080048C116000810B5094C01224FF473
:1016C80080712046FEF75CFE4FF47A7001F0D8FD79
:1016D80000224FF480712046FEF752FE014810BDEB
:1016E80000080048F116000810B5084C0122042132
:1016F8002046FEF745FE4FF47A7001F0C1FD002246
:1017080004212046FEF73CFE014810BD00080048B1
:101718001D17000810B50E4C012220212046FEF7A7
:101728002FFE01224FF480712046FEF729FE4FF468
:101738007A7001F0A5FD002220212046FEF720FE48
:1017480000224FF480712046FEF71AFE014810BDB2
:10175800000800486117000810B50D4C012220212F
:101768002046FEF70DFE012204212046FEF708FE62
:101778004FF47A7001F084FD002220212046FEF704
:10178800FFFD002204212046FEF7FAFD014810BDA6
:1017980000080048A117000810B50E4C012280214E
:1017A8002046FEF7EDFD01224FF480712046FEF73A
:1017B800E7FD4FF47A7001F063FD00228021204696
:1017C800FEF7DEFD00224FF480712046FEF7D8FDBB
:1017D800014810BD00080048E517000810B50D4C79
:1017E800012220212046FEF7CBFD01228021204640
:1017F800FEF7C6FD4FF47A7001F042FD0022202169
:101808002046FEF7BDFD002280212046FEF7B8FDE8
:10181800014810BD000800482518000808B54FF415
:101828007A7001F02DFD014808BD00BF811600083F
:1018380000B597B009230C934FF480330D93002221
:101848000E920122109212920222139214934FF4D4
:10185800E01315930CA8FFF7DBF968BB0F23079378
:1018680002210891002309934FF480620A920B9396
:1018780007A8FFF70BFD20BB174B00934FF48073AD
:1018880004934FF400730193684600F06BFCE8B9C9
:10189800FFF7E6FD114BA3FB00308009FFF76CFE54
:1018A8000420FFF77FFE002211464FF0FF30FFF7BC
:1018B80025FE17B05DF804FBAE21094800F034F8A6
:1018C800CCE7BC21064800F02FF8D5E7C42104482E
:1018D80000F02AF8DCE700BF80000100D34D621059
:1018E8009033000808B501F0ABFCFFF7A1FF00F04A
:1018F8001DF800F01DFC00F02FFB00F073FB00F05A
:10190800E3FA00F077F900F0FFF900F095FA00F03B
:1019180041F90022024B1A6002488047FDE700BFE8
:101928002400002081160008FEE700002DE9F041A0
:101938008AB0404B5A6942F400225A615A6902F44B
:1019480000220092009A5A6942F480025A615A6948
:1019580002F480020192019A5A6942F400325A61F3
:101968005A6902F400320292029A5A6942F48022B9
:101978005A615A6902F480220392039A5A6942F41E
:1019880080125A615B6903F480130493049B2A4F05
:10199800002243F6A0513846FEF7F2FC002241F23D
:1019A80003014FF09040FEF7EBFCDFF89480002233
:1019B8004CF2C4014046FEF7E3FC204E002204210D
:1019C8003046FEF7DDFC43F6A05305930125069546
:1019D80000240794089405A93846FEF707FC41F24D
:1019E8000303059306950794089405A94FF09040C2
:1019F800FEF7FCFB0427059703230693079405A924
:101A08004FF09040FEF7F2FB4CF2C40305930695A5
:101A18000794089405A94046FEF7E8FB0597069544
:101A28000794089405A93046FEF7E0FB0AB0BDE824
:101A3800F08100BF0010024000080048000C004878
:101A48000004004838B50C46030A304D2B70687006
:101A58002A460221002000F0B3F8C0F30723AB7038
:101A6800E870002C4AD02278284B1A7162785A7193
:101A7800A2789A71E278DA7122791A7262795A72C6
:101A8800224C22460621042000F09AF8C0F30723CE
:101A9800A372E072002000F09DF9002001F0F0FB35
:101AA800207800F081F9607800F07EF9A07800F0E5
:101AB8007BF9E07800F078F9207900F075F9144D99
:101AC8002870607900F070F96870A07900F06CF9FE
:101AD800A870E07900F068F9E870207A00F064F9FD
:101AE8002871607A00F060F96871A07A00F05CF9FA
:101AF800E07A00F059F900F08FF938BD00222A7118
:101B08006A71AA71EA712A726A72B9E7B000002094
:101B18002C00002000B583B000230093ADF80430FA
:101B28001B4A137803F01F011378C3F340139B007B
:101B380043EAC1035BB21178C1F3801143EA410360
:101B4800117843EAD1138DF8003053788DF80130BD
:101B5800937803F00F0193781B0943EA01138DF87A
:101B68000230D3788DF8033013798DF80430537927
:101B780003F00F0153791B0943EA01138DF805306F
:101B8800694648F20100FFF75DFF03B05DF804FB0A
:101B9800D001002008B5094B9A78072161F3071294
:101BA8009A7052225A70A422DA709A78012161F34D
:101BB80003029A70FFF7AEFF08BD00BFD0010020F6
:101BC80070B4044610230BE0155D85EAD315EDB219
:101BD8001B029BB2064E36F825506B400134E4B226
:101BE8000D18AC42F0DB580080B270BC704700BFE3
:101BF8009C33000800B591B03548364B036000238C
:101C080043607F228260FF22C26003614361836177
:101C1800FEF705FE002847D100212D48FFF757FCA5
:101C280043F2F223984224D000238DF82C308DF80B
:101C38002D308DF82E300E930F9301220BA92448D6
:101C4800FEF74AFE002834D101228DF828208DF8AD
:101C580029208DF82A2000238DF82B300AA91C484A
:101C6800FEF7B9FE50BB43F2F22200211848FFF7F5
:101C780029FC00238DF800308DF801308DF80230F2
:101C880001930393049305930693079301228DF818
:101C980020204FF48073099369460D48FEF708FF2A
:101CA80088B911B05DF804FB22210B48FFF73CFE10
:101CB800B2E72F210848FFF737FEC5E73921064864
:101CC800FFF732FECFE74D210348FFF72DFEE8E787
:101CD800D8010020002800409C3700080268084B03
:101CE8009A4200D070474FF4004292FAA2F2B2FA38
:101CF80082F2044B13449B0001221A60F2E700BFF2
:101D0800002800400081901008B51148114B03606D
:101D18004FF482734360002383604FF4E062C26033
:101D2800036143614FF4007282613822C261036229
:101D3800436283620722C2620363436301F0AEF821
:101D480000B908BD21210448FFF7EEFDF9E700BFFF
:101D5800F801002000300140A83700080268114B44
:101D68009A4200D0704700B587B003F560439A697E
:101D780042F480529A619B6903F480530093009B5C
:101D8800E023019302230293002303930323049384
:101D98000523059301A94FF09040FEF727FA07B0F5
:101DA8005DF804FB0030014000B587B08DF80F00E6
:101DB8004FF47A73009301230DF117020DF10F010F
:101DC800034801F0C3F89DF8170007B05DF804FB5D
:101DD800F801002010B50446012240210D48FEF705
:101DE800CFFA01224FF480514FF09040FEF7C8FA25
:101DF80014B1012C06D010BD002240210548FEF781
:101E0800BFFA10BD00224FF480514FF09040FEF70A
:101E1800B7FA10BD0004004808B501224021054862
:101E2800FEF7AEFA01224FF480514FF09040FEF7D2
:101E3800A7FA08BD0004004808B50C480C4B03601D
:101E48004FF4164343600023C36003610C224261D0
:101E58008361C36103624362FEF741FC00B908BDB8
:101E68001D210448FFF760FDF9E700BF5C02002070
:101E780000480040B43700080268114B9A4200D06D
:101E8800704700B587B003F5E433DA6942F480227D
:101E9800DA61DB6903F480230093009B4FF440630D
:101EA800019302230293012303930323049307233B
:101EB800059301A90348FEF799F907B05DF804FBFB
:101EC800004800400004004808B50C480C4B03606B
:101ED8001023436000238360C3600361436183610F
:101EE800C361036243628362C36200F011FA00B9FE
:101EF80008BD1F210348FFF717FDF9E7CC020020B2
:101F080000640040C03700080268114B9A4200D0B4
:101F1800704700B587B003F5D633DA6942F000722E
:101F2800DA61DB6903F000730093009B4FF44073A0
:101F380001930223029300230393032304930923A9
:101F4800059301A90348FEF751F907B05DF804FBB2
:101F5800006400400004004800B58BB01F484FF0F3
:101F6800A04303600023436083600361C36143624D
:101F780003630122C262C3600262436304224261B6
:101F88008361836300F060FBC0B90AA9002341F8AC
:101F98000C3D124800F028FEA8B90623019301233E
:101FA80002930023049303930593069301A90B4816
:101FB80000F058FC60B90BB05DF804FB2921084813
:101FC800FFF7B2FCE1E731210548FFF7ADFCE4E794
:101FD8003E210348FFF7A8FCEDE700BF600300209F
:101FE800CC37000800B587B01748184B03600023AA
:101FF800436083600361C361436203630122C26279
:10200800C36002624363042242618361836300F018
:102018001BFB78B9012300930193002303930293D8
:10202800049305936946084800F01CFC38B907B0CA
:102038005DF804FB59210648FFF776FCEAE76621BC
:102048000348FFF771FCF2E70C0300200001005081
:10205800CC37000830B589B00368B3F1A04F04D07D
:102068002C4A934238D009B030BD04462A4A136836
:1020780001331360012B1FD0072303930323049319
:102088000025059503A92548FEF7B0F82448254BF7
:102098000360456085608023C3604FF480730361EB
:1020A8004FF4806343618561C56100F003FA70B93C
:1020B8001B4BE3635C62D6E71B4B5A6942F08052C4
:1020C8005A615B6903F080530193019BD4E7922125
:1020D8001648FFF729FCEBE70F4A13680133136032
:1020E800012B0BD0102303930323049300230593A0
:1020F80003A94FF09040FEF779F8B4E70A4B5A6904
:1021080042F080525A615B6903F080530293029B4C
:10211800E8E700BF00010050200000200008004848
:10212800B40300200800024000100240CC37000829
:1021380000B583B00A4B5A6942F001025A615B69E3
:1021480003F001030193019B002211460B20FFF7C6
:10215800D5F90B20FFF704FA03B05DF804FB00BFC4
:1021680000100240F0B583B00446036813F4803FC2
:1021780044D0644BDB6913F0805F79D1614BDA6935
:1021880042F08052DA61DB6903F080530193019BCE
:1021980001255D4B1B6813F4807F6BD0594B1B6A7C
:1021A80013F4407321D0626802F4407293421CD049
:1021B8005448016A21F440764FF4803393FAA3F22D
:1021C800B2FA82F2514F3A4492004FF0010EC2F82F
:1021D80000E093FAA3F3B3FA83F33B449B00002295
:1021E8001A60066211F0010F58D1464A136A23F4A7
:1021F800407361680B431362002D7AD1236813F092
:10220800010F06D03F4A136B23F00303A1680B4369
:102218001363236813F0200F06D03A4A136B23F098
:102228001003E1680B431363236813F0800F06D093
:10223800344AD36A23F4F87321690B43D3622368C1
:1022480013F4805F06D02F4A136B23F480736169FF
:102258000B431363236813F4804F51D0294A136B3F
:1022680023F48053A1690B431363002003B0F0BD2E
:1022780000258EE7244A136843F48073136000F046
:10228800F9FF0646204B1B6813F4807F86D100F0C7
:10229800F1FF801B6428F5D90320E7E700F0EAFF87
:1022A800064614E0174B196A022393FAA3F3B3FA0C
:1022B80083F303F01F03012202FA03F3194294D1B6
:1022C80000F0D8FF801B41F28833984216D80223C9
:1022D80093FAA3F293FAA3F3B3FA83F35B0943F0F7
:1022E8000203022BDED0022393FAA3F3054B596AAB
:1022F800DAE7D36923F08053D3617FE70320B5E79A
:102308000020B3E7001002400070004000819010E8
:10231800002800F0BB8038B5044690F8393003B384
:10232800022384F839302268136823F0020313600B
:102338002268136843F00103136000F09BFF054611
:1023480023685A6812F0010F10D100F093FF401B68
:102358000A28F5D9032084F83900002384F8383096
:1023680038BD80F83830FFF7CFFDD9E75A6812F04A
:10237800010F7CD0A269012A50D01A6822F080028D
:102388001A60E369012B4ED02268136823F04003DA
:102398001360236A012B4CD02268136823F02003B2
:1023A8001360636A012B4AD02268136823F0100374
:1023B8001360A36A012B48D02268136823F008032E
:1023C8001360E36A012B46D02268136823F00403E4
:1023D80013602168A368E2681343226913436269A2
:1023E80013436268013A1343CB612268136823F0F0
:1023F8000103136000F03EFF054623685A6812F097
:10240800010F2ED000F036FF401B0A28F5D9032013
:1024180084F83900002384F8383038BD1A6842F04F
:1024280080021A60ADE72268136843F04003136026
:10243800AFE72268136843F020031360B1E722680E
:10244800136843F010031360B3E72268136843F07E
:1024580008031360B5E72268136843F004031360A8
:10246800B7E75B6813F0010F08D0002300E00023F2
:1024780033B9042384F83930012038BD0123F7E744
:102488000020E063012384F8393038BD012070470B
:102498000268054B1344054AA2FB03231B099B0052
:1024A8000364034BC3637047F8FFFDBFCDCCCCCCAE
:1024B8000000024040B310B50446022380F82130E2
:1024C80001680A6822F47F5222F03002436880686B
:1024D8000343E06803432069034360690343A06939
:1024E8000343E069034313430B602046FFF7D0FF23
:1024F8000020A062E06220636063A063012384F887
:10250800213084F8200010BD0120704738B5C36B16
:102518001A6804682568016C04238B401A4214D099
:1025280015F0040F11D0236813F0200F03D123688E
:1025380023F004032360C26B016C04238B405360B7
:10254800C36A002B3AD0984738BD02238B401A4201
:1025580019D015F0020F16D0236813F0200F06D1FA
:10256800236823F00A032360012380F82130C26B1B
:10257800016C02238B405360002380F82030836A6B
:10258800E3B1984738BD082303FA01F10A4215D090
:1025980015F0080F12D0236823F00E032360C16BD7
:1025A800026C012303FA02F24A60836380F8213047
:1025B800002380F82030036B03B1984738BD38B545
:1025C8000268936803F00303012B11D00023002B4A
:1025D80037D0936803F00D03012B11D0436C43F0FF
:1025E80010034364836C43F001038364012038BD06
:1025F800136813F0010F01D10023E8E70123E6E790
:102608000446936843F002039360036803221A6048
:1026180000F030FE054623689B6813F0010F0ED0CA
:1026280000F028FE401B0228F5D9636C43F0100324
:102638006364A36C43F00103A364012038BD002048
:1026480038BD002038BD000030B597B00023009396
:10265800002800F0FB800446436C13F0100F51D1A2
:10266800436CABB1002023689A6812F0805F03D0F6
:102678009B6813F0005F46D0636C23F0120343F0AD
:1026880010036364A36C43F00103A36401203AE0E0
:1026980083640365C36480F84030FFF7DBFC23687C
:1026A8009B6813F0805F01D00020DCE72046FFF72D
:1026B80086FF636C13F0100FD5D10028D3D1636C5B
:1026C80023F4885323F0020343F00203636422686F
:1026D800936823F0405393602268936843F08053D3
:1026E80093605B4B1B685B4AA2FB03239B0C03EBC9
:1026F80083035A000092009B002BB4D0009B013B3F
:102708000093F8E70020636C13F0100F40F09580F9
:10271800002840F092802268936813F0040340F088
:102728008C80616C21F4817141F002016164B2F125
:10273800A04F55D04FF0A0410191916801F00301DD
:10274800012950D0002272B9019D2DB1A96801F06C
:10275800030101294FD032B93F498A6822F4403237
:1027680065682A438A60E2695103A56B012D01D08F
:102778004FF480530B43E1680B43A1680B43616A34
:1027880001293ED0E26A012A02D0216B0A43134391
:102798002268916811F00C0F0BD1D16821F48041A7
:1027A80021F00201D160A169626B520042EA8132D4
:1027B80013432168CD68294A2A401343CB60236913
:1027C800012B31D02268136B23F00F03136300230E
:1027D800A364636C23F0030343F00103636433E0F1
:1027E8001F490191A9E7126812F0010F01D10022D7
:1027F800A9E70122A7E7296811F0010FABD0012250
:10280800A9E732B9A26A013A43EA424343F4803362
:10281800B8E7626C22F0220242F020026264A26CE5
:1028280042F00102A264ADE721680B6B23F00F03AD
:10283800226A013A13430B63C9E7636C23F012035E
:1028480043F010036364012017B030BD0120FBE79B
:102858000000002083DE1B430003005007C0F0FF88
:102868000001005070B497B00022009290F8402008
:10287800012A00F0AD810346012280F8402000685B
:10288800826812F0040F40F096814A68042A31D811
:10289800046B02EB420255001F22AA4024EA0202FE
:1028A8000C68AC40224302631868826812F00C0F6F
:1028B80068D10A68092A4ED9846902EB42021E3A95
:1028C8000725954024EA05048D6805FA02F222439B
:1028D800826148691C68E268C2F3C102520000FACA
:1028E80002F208690138032800F28F80DFE800F05F
:1028F800406C7782092A0ED8446B02EB42025500DD
:102908001E3D1F22AA4024EA02020C6804FA05F5BB
:102918002A434263C8E70E2A0ED8846B02EB4202B0
:1029280055003C3D1F22AA4024EA02020C6804FA22
:1029380005F52A438263B7E7C46B02EB42025500F0
:102948005A3D1F22AA4024EA02020C6804FA05F53F
:102958002A43C263A8E7446902EB4202072595406F
:1029680024EA05048D6805FA02F222434261B0E7C1
:10297800206E984D0540086842EA8062154345F08C
:10298800004525661868826802F00302012A6FD0A4
:102998000022002A40F01A81CC68012C70D0D0F8AF
:1029A800B0400E680125B54024EA0504C0F8B040DF
:1029B8000968102900F08D80112900F0AF801229D4
:1029C80000F0B2800020FBE0606E824D0540086890
:1029D80042EA8062154345F000456566D2E7A06E7D
:1029E8007C4D0540086842EA8062154345F0004581
:1029F800A566C7E7E56E774828400D6842EA856214
:102A0800024342F00042E266BCE7226E02F0F8425E
:102A18000868B2EB806F1CD01868426E02F0F8426A
:102A28000C68B2EB846F19D01868826E02F0F84215
:102A38000C68B2EB846F16D01868C26E02F0F842C8
:102A48000C68B2EB846F9DD1C26E22F00042C26660
:102A580098E7226E22F000422266DDE7426E22F0FD
:102A680000424266E0E7826E22F000428266E3E7B7
:102A7800026812F0010F01D100228AE7012288E7DB
:102A8800D0F8B0400E680125B5402C43C0F8B040DE
:102A9800086809280ED91E68B46900EB40001B3885
:102AA8000725854024EA05048D6805FA00F02043CF
:102AB800B0617DE71E687469013000EB40000725AE
:102AC800854024EA05048D6805FA00F0204370610A
:102AD8006EE74148806810F4000F7FF46DAF1C6802
:102AE800B4F1A04F27D04FF0A0400190A06800F0AB
:102AF8000300012822D0002A57D1019D35B1A868CA
:102B080000F0030001281FD0002A4ED1102921D03F
:102B1800112939D0122941D0002051E02E4880686F
:102B280010F0807FDBD04AE72B48806810F4800FD4
:102B3800D5D0002044E029480190D7E7206810F05C
:102B4800010FD8D00122D6E7286810F0010FDBD09A
:102B58000122D9E7B4F1A04FDAD11F498A6842F4BB
:102B680000028A601E4A12681E49B2FBF1F10A226D
:102B780002FB01F2009202E0009A013A0092009AE8
:102B8800002AF9D100201BE0B4F1A04FC2D11249AC
:102B98008A6842F080728A60002011E00E498A68D3
:102BA80042F480028A6000200AE05A6C42F0200257
:102BB8005A64012004E05A6C42F020025A64012051
:102BC800002283F8402017B070BC70470020F7E758
:102BD8000220F8E700F0FF830003005000010050D6
:102BE8000000002040420F0090F84020012A00F029
:102BF8008E8070B497B00346012280F840200268A6
:102C0800B2F1A04F35D04FF0A0400190926812F079
:102C1800040F69D1019A906810F0040F64D1086814
:102C2800002837D03B4DA86820F460404C685E6BA4
:102C380044EA46342043A8601C68A06800F00300FA
:102C4800012819D00020002859D1946804F0030401
:102C5800012C19D0002854D12E4CA26822F471629C
:102C680022F00F020868896801430A43A260002025
:102C78003FE029480190C9E7206810F0010F01D111
:102C88000020E0E70120DEE7126812F0010FE1D032
:102C98000120DFE71F48816821F4604181601868DE
:102CA800816801F00301012910D0002159BB906807
:102CB80000F00300012811D039BB16498A6822F4B4
:102CC800716222F00F028A60002012E0016811F0A0
:102CD800010F01D10021E9E70121E7E7126812F0AD
:102CE800010FE9D00121E7E75A6C42F020025A644B
:102CF8000120002283F8402017B070BC70470020E4
:102D0800F7E70020F5E70020F3E70020F1E70220CD
:102D1800704700BF0003005000010050F0B583B0B9
:102D280007460C4615461E4602E0B6F1FF3F10D195
:102D38003A6893682340AB423FD0B4F5C06FF4D1F2
:102D4800002DF2D1137BDBB28DF807309DF80730E8
:102D5800EBE72EB100F08EFA089BC01A8642E7D83E
:102D68003A68536823F0E00353607B68B3F5827FC9
:102D78000BD0BB6AB3F5005F14D0012387F85D3030
:102D8800002387F85C30032018E0BB68B3F5004FD8
:102D980002D0B3F5806FECD13A68136823F0400392
:102DA8001360E6E73A68136823F4005313603A683F
:102DB800136843F400531360DFE7002003B0F0BD4D
:102DC800F8B505460F4616461C4639E02CB100F00A
:102DD80051FA069BC01A844232D82A68536823F0F5
:102DE800E00353606B68B3F5827F0BD0AB6AB3F531
:102DF800005F14D0012385F85D30002385F85C302E
:102E08000320F8BDAB68B3F5004F02D0B3F5806F6F
:102E1800ECD12A68136823F040031360E6E72A68B8
:102E2800136823F4005313602A68136843F40053AB
:102E38001360DFE70123B34209D0B4F1FF3FC5D1E6
:102E48002B689B6837EA0303F4D00023F3E70020DC
:102E5800F8BD70B582B004460D46164600920B4682
:102E680000224FF4C051FFF759FF38B1236E43F0E9
:102E7800200323660323184602B070BD00962B4634
:102E8800002280212046FFF79BFF03460028F2D04E
:102E9800236E43F0200323660323ECE7002853D076
:102EA80010B504460023836290F85D30002B40D0B3
:102EB800022384F85D302268136823F0400313600E
:102EC800E368B3F5E06F39D90021B3F5706F04D02A
:102ED800B3F5E06F01D00022A262226B22B9B3F5EC
:102EE800E06F2ED90223236322686368A068034336
:102EF8002069034360690343A06900F40070034339
:102F0800E0690343206A0343A06A0343136022680D
:102F1800638B03F00403606A0343606B0343E06858
:102F280003430B43536000202066012384F85D307F
:102F380010BD80F85C30FEF711FFB9E74FF48051FF
:102F4800C3E701232363CFE7012070472DE9F84346
:102F58009946089D90F85C30012B02D10220BDE80B
:102F6800F88304460F461646012380F85C3000F0CB
:102F780081F9804694F85D30DBB26268012B13D08A
:102F8800B2F5827F08D00220012384F85D30002347
:102F980084F85C30BDE8F883A268002A40F02C81F0
:102FA800042B01D00220EFE7002F00F02781002E2C
:102FB80000F02681B9F1000F00F0248194F85D300B
:102FC800DBB2042B02D0052384F85D30002323668E
:102FD8002664A4F84690A4F84490A763A4F83E9009
:102FE800A4F83C90E3642365E368B3F5E06F04D884
:102FF800B4F846309BB2012B23D92268536823F4D6
:103008008053536023681A6812F0400F03D11A687E
:1030180042F040021A60E368B3F5E06F56D963687E
:103028001BB1E38F9BB2012B08D1236837F8022B21
:10303800DA60E38F9BB2013B9BB2E3874FF0010953
:1030480024E02268536843F480535360DAE7B4F805
:1030580046309BB283B123689A6812F0010F0BD0F7
:10306800DB6826F8023BB4F846309BB2013B9BB2C2
:10307800A4F846304FF00109B5F1FF3F06D000F043
:10308800F9F8A0EB0800854240F2BE80E38F9BB2BE
:103098002BB9B4F846309BB2002B00F0A180B9F1EF
:1030A800000FD4D0E38F9BB2002BD0D023689A684E
:1030B80012F0020FCBD037F8022BDA60E38F9BB205
:1030C800013B9BB2E3874FF00009C0E763681BB17F
:1030D800E38F9BB2012B0CD1E38F9BB2012B0BD951
:1030E800236837F8022BDA60E38F9BB2023B9BB26E
:1030F800E3874FF001093BE023683A781A73E38FBE
:103108009BB2013B9BB2E3870137F2E73A781A7327
:10311800E38F9BB2013B9BB2E38701374FF0000975
:10312800B4F846309BB2D3B123689A6812F0010F05
:1031380015D0B4F8462092B2012A44D9DB6826F8A3
:10314800023BB4F846309BB2023B9BB2A4F846302F
:10315800B4F846309BB2012B2DD94FF00109B5F1D7
:10316800FF3F05D000F086F8A0EB080085424DD956
:10317800E38F9BB223B9B4F846309BB2002B2FD013
:10318800B9F1000FCCD0E38F9BB2002BC8D02368D5
:103198009A6812F0020FC3D0E28F92B2012AB5D911
:1031A80037F8022BDA60E38F9BB2023B9BB2E387CE
:1031B8004FF00009B4E72268536843F48053536022
:1031C8004FF00109CBE71B7B3370B4F846309BB254
:1031D800013B9BB2A4F8463001364FF00109BEE727
:1031E800424629462046FFF734FE08B120232366CD
:1031F800236E6BB90020C7E60220C5E60120C3E6AE
:103208000120C1E60120BFE60320BDE60320BBE69E
:103218000120B9E610B50446074B1868074BA3FB15
:1032280000308009FEF7A8F9002221464FF0FF3050
:10323800FEF764F9002010BD00000020D34D621095
:1032480008B5074A136843F0100313600320FEF71C
:1032580043F90020FFF7DEFFFEF7BAF9002008BDAA
:1032680000200240024A136801331360704700BF10
:10327800F8030020014B1868704700BFF8030020CE
:1032880010B582B00190FFF7F5FF0446FFF7F2FF93
:10329800001B019B9842F9D302B010BDDFF834D06F
:1032A800002103E00C4B5B58435004310B480C4B96
:1032B80042189A42F6D30B4A02E0002342F8043B34
:1032C800094B9A42F9D3FDF73FFA00F011F8FEF7DF
:1032D80009FBFEE700300020E0370008000000206E
:1032E8000400002004000020FC030020FEE700008A
:1032F80070B50D4E0D4CA41BA4100025A54209D194
:103308000B4E0C4C00F018F8A41BA4100025A54285
:1033180005D170BD56F8253098470135EEE756F8C7
:10332800253098470135F2E7D8370008D837000824
:10333800D8370008DC370008F8B500BFF8BC08BC6F
:103348009E467047F8B500BFF8BC08BC9E4670475B
:10335800000000000000000001020304060708093D
:10336800000000000102030402030405060708091F
:103378000A0B0C0D0E0F10100102030405060708B6
:10338800090A0B0C0D0E0F105372632F6D61696ED5
:103398002E6300000000000099C50000ABCE0000BD
:1033A800320B0000CFD80000561D00006416000044
:1033B800FDD3000007F400009E310000AC3A000085
:1033C80035FF0000C82C000051E9000063E200004E
:1033D800FA27000097AD00000E6800003C6300006B
:1033E800A5A6000058750000C1B00000F3BB00009E
:1033F8006A7E000090590000099C00003B9700007D
:10340800A25200005F810000C6440000F44F000093
:103418006D8A00002E5B0000B79E000085950000B5
:103428001C500000E1830000784600004A4D00006F
:10343800D388000029AF0000B06A00008261000054
:103448001BA40000E67700007FB200004DB9000021
:10345800D47C0000B9F600002033000012380000C8
:103468008BFD0000762E0000EFEB0000DDE0000091
:1034780044250000BE02000027C7000015CC00004C
:103488008C09000071DA0000E81F0000DA1400005F
:1034980043D10000C5F300005C3600006E3D00001B
:1034A800F7F800000A2B000093EE0000A1E50000E9
:1034B80038200000C20700005BC2000069C9000094
:1034C800F00C00000DDF0000941A0000A6110000A7
:1034D8003FD40000525E0000CB9B0000F990000032
:1034E800605500009D860000044300003648000037
:1034F800AF8D000055AA0000CC6F0000FE640000EC
:1035080067A100009A72000003B7000031BC0000F8
:10351800A8790000EBA80000726D0000406600006A
:10352800D9A3000024700000BDB500008FBE0000C4
:10353800167B0000EC5C00007599000047920000C3
:10354800DE57000023840000BA410000884A0000CA
:10355800118F00007C050000E5C00000D7CB0000FB
:103568004E0E0000B3DD00002A18000018130000FA
:1035780081D600007BF10000E2340000D03F00005B
:1035880049FA0000B42900002DEC00001FE70000F4
:103598008622000013A200008A670000B86C0000B1
:1035A80021A90000DC7A000045BF000077B40000C4
:1035B800EE710000145600008D930000BF980000C3
:1035C800265D0000DB8E0000424B000070400000CA
:1035D800E9850000840F00001DCA00002FC100000B
:1035E800B60400004BD70000D2120000E01900001A
:1035F80079DC000083FB00001A3E0000283500003B
:10360800B1F000004C230000D5E60000E7ED000013
:103618007E2800003DF90000A43C00009637000019
:103628000FF20000F22100006BE4000059EF0000E7
:10363800C02A00003A0D0000A3C8000091C3000092
:1036480008060000F5D500006C1000005E1B0000A5
:10365800C7DE0000AA54000033910000019A000060
:10366800985F0000658C0000FC490000CE42000015
:1036780057870000ADA0000034650000066E00000A
:103688009FAB000062780000FBBD0000C9B60000D7
:1036980050730000D65100004F9400007D9F000039
:1036A800E45A000019890000804C0000B24700006D
:1036B8002B820000D1A50000486000007A6B000052
:1036C800E3AE00001E7D000087B80000B5B300001F
:1036D8002C76000041FC0000D8390000EA320000D6
:1036E80073F700008E24000017E1000025EA0000AF
:1036F800BC2F000046080000DFCD0000EDC600002A
:103708007403000089D0000010150000221E00007C
:10371800BBDB0000F80A000061CF000053C40000C2
:10372800CA01000037D20000AE1700009C1C000040
:1037380005D90000FFFE0000663B00005430000081
:10374800CDF5000030260000A9E300009BE800004A
:10375800022D00006FA70000F6620000C469000097
:103768005DAC0000A07F000039BA00000BB100007A
:103778009274000068530000F1960000C39D000099
:103788005A580000A78B00003E4E00000C45000070
:10379800958000005372632F7274632E63000000DB
:1037A8005372632F7370692E630000005372632F86
:1037B80075736172742E63005372632F63616E2E8A
:1037C800630000005372632F6164632E630000007E
:0437D800AD01000837
:0437DC008901000857
:0437E00000127A0059
:04000005080032A518
:00000001FF
